:1000000004C100001EC100001CC100001AC1000094
:1000100018C1000016C1000014C1000012C1000088
:1000200010C100000EC100000C94150B0AC10000A5
:1000300008C1000006C1000004C1000002C10000A8
:1000400000C10000FEC00000FCC00000FAC00000BB
:10005000F8C00000F6C00000F4C00000F2C00000CC
:10006000F0C00000EEC00000ECC00000EAC00000DC
:10007000E8C00000E6C00000E4C00000E2C00000EC
:10008000E0C00000DEC00000DCC00000DAC00000FC
:10009000D8C00000D6C00000D4C00000D2C000000C
:1000A000D0C00000CEC00000CCC0000007634236C4
:1000B000B79BD8A71A39685618AEBAAB558C1D3CF9
:1000C000B7CC5763BD6DEDFD753EF6177231BF00BD
:1000D0000000803F08000000BE922449123EABAAF7
:1000E000AA2ABECDCCCC4C3E00000080BEABAAAA52
:1000F000AA3E00000000BF000000803F000000009A
:1001000000084178D3BB4387D1133D190E3CC3BDD2
:100110004282AD2B3E68EC8276BED98FE1A93E4C7F
:1001200080EFFFBE01C4FF7F3F00000000003003EE
:100130005400680072007500730074006D00610067
:100140007300740065007200200043006F007500AA
:10015000670061007200200054005100530000004D
:100160000E035500720069005F006200610000002C
:100170000403090409022200010100C0320904003D
:1001800000010300000009211101000122620007A3
:1001900005810308000512011001000000084F044A
:1001A000BBBB03000102000105010904A101090113
:1001B000A1000930093116000026FF003600004674
:1001C000FF00950275088102093216000026FF0F14
:1001D00036000046FF0F9501750C81020933093482
:1001E00016000026FF0336000046FF039502750A3D
:1001F0008102C005091901290A150025017501951B
:100200000A8102750695018101C011241FBECFEF3E
:10021000DAE0DEBFCDBF11E0A0E0B1E0E0EFF2E256
:1002200002C005900D92A031B107D9F721E0A0E1FD
:10023000B1E001C01D92A233B207E1F78FD30C9455
:100240007611DECE292F332723303105E1F05CF41F
:100250002130310599F02230310579F582E290E0C4
:1002600024E731E02EC02132310511F1223231056F
:1002700021F582E690E028EA31E023C082E190E0B7
:1002800026E931E01EC099278130910541F0823086
:10029000910541F0892B89F4E0E7F1E005C0E0E643
:1002A000F1E002C0EEE2F1E0849190E09F0109C02C
:1002B00089E090E026E831E004C080E090E020E0B2
:1002C00030E0FA0131832083089580937C0090FF11
:1002D00004C080917B00806203C080917B008F7D91
:1002E00080937B0080917A00806480937A00809173
:1002F0007A0084FFFCCF80917A00806180937A003D
:10030000809178009091790008958798EEE7F0E069
:1003100080818068808386988081806480838598CE
:100320008081806280838498808180618083ECE713
:10033000F0E080818064808387E880937A0008956C
:10034000269A2E9A209A289A84B1866084B9239896
:100350002B9A8DB58E7F8DBD209880E58CBD08953C
:100360008AB183618AB98BB183618BB957986E98D2
:100370002498259808954F925F926F927F92AF9242
:10038000BF92CF92DF92EF92FF920F931F93CF9382
:10039000DF93CDB7DEB729013A01261737074807A3
:1003A000590724F56E157F058007910714F59B0109
:1003B000AC01241935094609570969897A898B895D
:1003C0009C896A197B098C099D090E94C610A801A5
:1003D000970124193509460957090E94FC10CA01E2
:1003E000B9016A0D7B1D8C1D9D1D07C0C601B5019D
:1003F00004C069897A898B899C89DF91CF911F918B
:100400000F91FF90EF90DF90CF90BF90AF907F90D3
:100410006F905F904F9008954F925F926F927F928E
:100420008F929F92AF92BF92CF92DF92EF92FF9204
:100430000F931F93CF93DF93CDB7DEB728970FB6F7
:10044000F894DEBF0FBECDBFEB8D6C8C7D8CFE8D26
:1004500026173707480759070CF064C06E157F054B
:10046000800791070CF061C0A982BA82CB82DC823E
:100470004701580169017A01DC01CB019C01AD0102
:100480002C193D094E095F092D833E834F83588700
:100490006E2F762D872D9F2F0E944E0E2B013C0133
:1004A00069817A818B819C810E944E0E9B01AC01F7
:1004B000C301B2010E944A0D2B013C01C501B401E8
:1004C0000E944E0E4B015C01C701B6010E944E0E08
:1004D0009B01AC01C501B4010E944A0D9B01AC0116
:1004E000C301B2010E94B30D20E030E44CE156E4B8
:1004F0000E94FE0E0E941B0EDB012D813E814F816A
:1005000058850E94221120E137E240E050E00E942D
:10051000FC1069817A818B819C81620F731F841F1B
:10052000951F07C0C601B50104C06E2F762D872D1B
:100530009F2F28960FB6F894DEBF0FBECDBFDF9178
:10054000CF911F910F91FF90EF90DF90CF90BF90D0
:10055000AF909F908F907F906F905F904F90089595
:100560002F923F924F925F926F927F92AF92BF9283
:10057000CF92DF92EF92FF920F931F93CF93DF936F
:10058000CDB7DEB768970FB6F894DEBF0FBECDBF0C
:100590002B013C012D833E834F835887E986FA86E1
:1005A0000B871C872BA43CA40DA51EA5EFA4F8A8BF
:1005B000CA01B90129853A854B855C85620F731F95
:1005C000841F951F22E030E040E050E00E94FC10C4
:1005D0002D873E874F87588B970140E050E0D3012D
:1005E000C201821B930BA40BB50B82968534910537
:1005F00010F429013A0189A98A3008F068C0C301C2
:10060000B201621B730B840B950B2D8B3E8B4F8BB2
:10061000588F0E944E0E2B013C012D893E894F8937
:10062000588DCA01B9010E944C0E9B01AC01C30157
:10063000B2010E94B30D698B7A8B8B8B9C8B29A99D
:10064000622F70E080E090E00E944E0E20E030E0EB
:1006500040E950E40E94B30D9B01AC0160E070E002
:1006600080E490E40E944A0D9B01AC0169897A897B
:100670008B899C899F770E94610F2B013C0120E0B0
:1006800030E0A90169897A898B899C890E94AF0D24
:1006900087FF04C077FA709477F870944D855E8573
:1006A000BA01550F880B990B0E944E0E69837A830D
:1006B0008B839C83A30192010E94FE0E29813A81C3
:1006C0004B815C810E944B0D0E941B0E0EC06D85FC
:1006D0007E856E197F09CB01770FAA0BBB0BBC017E
:1006E000CD01640D751D861D971D1F930F933F92BD
:1006F0002F92E984FA840B851C852D813E814F81E0
:10070000588539DE0F900F900F900F9068960FB6B6
:10071000F894DEBF0FBECDBFDF91CF911F910F9137
:10072000FF90EF90DF90CF90BF90AF907F906F9051
:100730005F904F903F902F900895AF92BF92CF92CD
:10074000DF92EF92FF920F931F932E9881E08EBD60
:100750000DB407FEFDCF80EA8EBD0DB407FEFDCFC0
:100760006EB570E06F70762F66271EBC0DB407FE65
:10077000FDCF8EB5682B80E090E01F921F922FE096
:100780002F932FEF2F93A12CB12C650110E1E12EB7
:100790001EE0F12E00E010E02EE531E040E050E0F8
:1007A0003BDE0F900F900F900F902E9ACB011F9170
:1007B0000F91FF90EF90DF90CF90BF90AF90089592
:1007C000AF92BF92CF92DF92EF92FF920F931F935F
:1007D000CF93DF93EA01122F806490E0662321F12A
:1007E00074DDBC0180E090E01F93DF93CF931F92F4
:1007F0001F921F922FEF2F93A12CB12C650110E2B5
:10080000E12E13E0F12E00E010E02CE231E040E0B8
:1008100050E0A6DE8DB79EB707960FB6F8949EBF40
:100820000FBE8DBF609522C050DDBC0180E090E01E
:100830001F93DF93CF931F921F921F922FEF2F933F
:10084000A12CB12C650110E2E12E13E0F12E00E0A5
:1008500010E02CE231E040E050E082DE8DB79EB740
:1008600007960FB6F8949EBF0FBE8DBF862FDF91FF
:10087000CF911F910F91FF90EF90DF90CF90BF909D
:10088000AF900895EF92FF920F931F93CF93DF9352
:1008900087E490E01ADDEC0187E490E016DDC80FF4
:1008A000D91F87E490E011DD8C0F9D1F23E0E22E1D
:1008B000F12CB7010E94D51060931A010BE111E0F1
:1008C0007370F80180818C7F782B708386E490E0D0
:1008D000FCDCEC0186E490E0F8DCC80FD91F86E46C
:1008E00090E0F3DC8C0F9D1FB7010E94D510962F6E
:1008F000990F990FF80180818370892B8083ECE137
:10090000F1E062956695669563709081907F737053
:10091000872F880F880F792F762B782B7083DF91A4
:10092000CF911F910F91FF90EF90089584B7877F2B
:1009300084BF0FB6F894A895809160008861809379
:100940006000109260000FBE90E080E80FB6F8944F
:1009500080936100909361000FBE4AC6E7DF7894F0
:10096000FFDCEEDCD2DC8EDF80E091E020D30E9461
:10097000300DFACF0895089580E091E005D3E2EEBE
:10098000F0E0808184608083089580E091E0C2C1BE
:1009900080910E0190910F01009729F0019790939B
:1009A0000F0180930E0108956F927F928F929F9214
:1009B000AF92BF92CF92DF92EF92FF920F931F936D
:1009C000CF93DF9349013801B8DE209116014091A1
:1009D0001701342F3F70880F991F820F931F63E018
:1009E00070E00E94D510AB015F70421B530B4C5F4F
:1009F0005F4FF40183814930510518F06283972FCE
:100A000003C0F4012283932F9F70807F892B8383FF
:100A1000549A5C98C9B10C2E000CDD0BC095D09592
:100A2000CC27DD0FCC1FDD2756E0CC0FDD1F5A95FC
:100A3000E1F7669B02C0CD7F01C0C26054985C980C
:100A400000911A0110911B01137087E490E03DDCC6
:100A5000BC0180E090E025E02F931F930F931F923D
:100A60001F921F922FEF2F93A12CB12C650110E242
:100A7000E12E13E0F12E00E010E02CE231E040E046
:100A800050E06EDD8DB79EB707960FB6F8949EBF07
:100A90000FBE8DBF60958091100120911201E3E09F
:100AA0008E9FC0011124F4E06F9F800D911D1124D1
:100AB000820F911D820F911D20911401820F911DB3
:100AC0006AE070E00E94E910F4016083519A59983D
:100AD0004F9B02C0CB7F01C0C460669B02C0C77F32
:100AE00001C0C8601C9B02C0CF7E01C0C0611D9BBD
:100AF00002C0CF7D01C0C0625198599840911B013E
:100B00004695469550911C01852F8295880F880F38
:100B1000807C482B56955695537025E060E086E022
:100B20004FDE2091110140911301F3E02F9F9001BE
:100B30001124B901E4E08E9F600D711D1124CB01D9
:100B4000840F911D840F911D20911501820F911D1D
:100B50006AE070E00E94E910F4016183509A5898AD
:100B600085E490E0B2DBBC01660F771F909118011D
:100B7000929596959695937040911901842F880FC0
:100B8000880F282F292B342F3295369536953370C0
:100B9000CB01820F931F63E070E00E94D510962F67
:100BA0009295990F990F907CF40184818F73892B12
:100BB00084837295770F770F707C66956695762B98
:100BC00075834F9BC068669BD1601C9BD2601D9B48
:100BD000D4605098589884E490E077DBBC01660FAD
:100BE000771F4091170142954F7090911801892FFE
:100BF0008295807F282F242B92959F70392F3370F8
:100C0000CB01820F931F63E070E00E94D510962FF6
:100C10009295907FF40183818F70892B83836295F5
:100C20006F709481907C7370872F8295807F792F6D
:100C3000762B782B7483D695C795C6839D2F93709A
:100C400087818C7F892B878380911201909113017A
:100C500090931501809314018091100190911101DE
:100C60009093130180931201808180931001818100
:100C70008093110182815381809316019481892F81
:100C800082958695869583704581942F990F990F4B
:100C9000982B292F2295220F220F207C30911801AA
:100CA0003F73322B30931801407C96959695942B88
:100CB00090931901938192959F702481822F829540
:100CC000807F892B482F4295407F952F9F70942BD2
:100CD00090931701982F92959F70832F807C20739B
:100CE000892B822B8093180188E090E0F301918397
:100CF000808381E0DF91CF911F910F91FF90EF9062
:100D0000DF90CF90BF90AF909F908F907F906F902B
:100D1000089508956F927F928F929F92AF92BF92A3
:100D2000CF92DF92EF92FF920F931F93CF93DF93B7
:100D300000D01F92CDB7DEB77C01CDB6DEB6809174
:100D4000E80083FF0AC1F701808190E020912E0125
:100D500030912F012817390709F0FFC080912B012E
:100D6000833009F4A1C030F4813071F0823009F48D
:100D7000D8C0F3C08A3009F4BCC08B3009F4A5C0D8
:100D8000893009F0EAC053C080912A01813A09F004
:100D9000E4C08DB69EB61A82198280912C01109102
:100DA0002D018B83F7018085482F50E08DB79EB7CA
:100DB000841B950B0FB6F8949EBF0FBE8DBFEDB789
:100DC000FEB731965F0160E070E0CF010E946F11C5
:100DD0004FEF410F8E010F5F1F4F9501BE016D5FF9
:100DE0007F4FC701E1DDF70186819781009729F0E8
:100DF000408550E0B5010E9466111092E900809193
:100E0000E800877F8093E8008B8181118093F10057
:100E100069817A81C501DAD18091E8008B7780936E
:100E2000E8000FB6F8949EBE0FBE8DBE96C08091AE
:100E30002A01813209F091C0ADB6BEB600913001F1
:100E40001091310170902C0160902D018DB79EB7EB
:100E5000801B910B0FB6F8949EBF0FBE8DBFEDB7F0
:100E6000FEB731964F018091E800877F8093E800BC
:100E7000B801CF010ED28091E8008E778093E80010
:100E800021E0711001C020E030E0021B130B280D9F
:100E9000391D4FEF460D672DC7013BDF0FB6F894A4
:100EA000BEBE0FBEADBE59C080912A01813A09F085
:100EB00054C08091E800877F8093E8008091E8002B
:100EC00080FFFCCFF701818540C080912A018132EB
:100ED00009F043C08091E800877F8093E800F7D253
:100EE00090912C0181E0911101C080E0F701818790
:100EF00034C080912A01813281F58091E800877F9A
:100F00008093E800E4D280912C0190912D018827F4
:100F100036E0969587953A95E1F7F70195878487AE
:100F20001CC080912A01813AC1F48091E800877F3A
:100F30008093E8008091E80080FFFCCFF701848572
:100F4000958596958795969587958093F1008091E4
:100F5000E8008E778093E800BAD20FB6F894DEBE30
:100F60000FBECDBE0F900F900F90DF91CF911F91CC
:100F70000F91FF90EF90DF90CF90BF90AF909F9038
:100F80008F907F906F900895FC01399627E0DF01E4
:100F90001D922A95E9F721E0FC01218724EF31E039
:100FA0003587248723E0248361E0019648C24F926D
:100FB0005F926F927F928F929F92AF92BF92CF92E9
:100FC000DF92EF92FF920F931F93CF93DF9300D0A6
:100FD0001F92CDB7DEB77C01ADB6BEB680912901B8
:100FE000843009F090C08091E4009091E500F70111
:100FF000228533852817390709F485C081818F70D0
:101000008093E9008091E80085FF7DC08DB69EB693
:10101000408550E08DB79EB7841B950B0FB6F894B2
:101020009EBF0FBE8DBFEDB7FEB731966F011B821D
:101030001A82198260E070E0CF010E946F118E0168
:101040000F5F1F4F960140E0BE016D5F7F4FC701EC
:10105000ABDC482EF70184859585892B51F091E012
:1010600080E026853785232B09F090E0092F182F83
:1010700002C000E010E0F70166807780611471041F
:1010800099F049815A81B301C6010E945911552432
:101090005394892B09F4512CF701408550E0B60197
:1010A000C3010E94661101C0512C89819A81892B4C
:1010B000F1F0411004C0511002C0012BC1F0F70142
:1010C000848595859787868781818F708093E900D5
:1010D0008B8181118093F10069817A8140E050E039
:1010E000C6012AD08091E8008E778093E800809135
:1010F000E4009091E500F701938782870FB6F8949A
:101100009EBE0FBE8DBE0FB6F894BEBE0FBEADBE66
:101110000F900F900F90DF91CF911F910F91FF9043
:10112000EF90DF90CF90BF90AF909F908F907F9087
:101130006F905F904F900895CF92DF92EF92FF9261
:101140000F931F93CF93DF93EC018B017A01DED1D4
:10115000811133C0E114F10439F0F70180819181EC
:10116000081B190BC80FD91FC12CD12C0115110553
:1011700019F18091E80085FD16C08091E8008E7716
:101180008093E8006DD4E114F10449F0F701808107
:101190009181C80ED91ED182C08285E00EC0B6D121
:1011A000882321F30AC089918093F100015011092D
:1011B000FFEFCF1ADF0ADACF80E0DF91CF911F91E6
:1011C0000F91FF90EF90DF90CF9008952091300124
:1011D000309131012617370748F06115710539F450
:1011E0002091E8002E772093E80001C0B90140E08B
:1011F00061157105A9F120912901222309F443C049
:10120000253009F442C02091E80023FD40C0209120
:10121000E80022FD32C02091E80020FFE9CF409194
:10122000F3002091F20030E0342BFC01CF01611576
:10123000710559F02830310540F481918093F10017
:10124000615071092F5F3F4FF1CF41E028303105E8
:1012500009F040E02091E8002E772093E800C8CF05
:101260004111C9CF0AC080912901882361F08530DE
:1012700061F08091E80083FD0AC08091E80082FF60
:10128000F2CF80E0089582E0089583E0089581E040
:1012900008956115710529F42091E8002B772093BA
:1012A000E800FC016115710541F180912901882355
:1012B00061F1853061F18091E80083FD24C0809167
:1012C000E80082FFEFCF2091F3008091F20090E0E0
:1012D000922B892B31F08091F1008193615071093B
:1012E00091F78091E8008B778093E800DBCF8091C5
:1012F0002901882351F0853051F08091E80080FF6A
:10130000F6CF80E0089581E0089582E0089583E0BB
:10131000089520913001309131012617370748F0A8
:101320006115710539F42091E8002E772093E800CB
:1013300001C0B901FC0120E06115710591F18091B6
:101340002901882309F440C0853009F43FC0809109
:10135000E80083FD3DC08091E80082FD2FC08091B0
:10136000E80080FFE9CF2091F3008091F20090E047
:10137000922B6115710559F08830910540F4249144
:101380002093F1003196615071090196F2CF21E06E
:10139000089709F020E08091E8008E778093E800BC
:1013A000CBCF2111CCCF0AC080912901882361F0D5
:1013B000853061F08091E80083FD0AC08091E800EB
:1013C00082FFF2CF80E0089582E0089583E00895DF
:1013D00081E00895982F973058F59093E900981779
:1013E00039F07091EC002091ED005091F00003C0B5
:1013F000242F762F50E021FF19C03091EB003E7F63
:101400003093EB003091ED003D7F3093ED00309153
:10141000EB0031603093EB007093EC002093ED0013
:101420005093F0002091EE0027FF07C09F5FD3CFBD
:101430008F708093E90081E0089580E00895EF9235
:10144000FF920F931F93CF93DF93E62EEC018C0155
:101450000C5F1F4FF12CFE1491F15881552351F16F
:10146000F801208169817A8131979081852F8F7071
:10147000873010F080E024C0223010F442E001C038
:1014800046E0E8E0F0E020E0E617F70720F42F5F01
:10149000EE0FFF1FF9CF2295207F422BF0E49F9F94
:1014A00090011124551F5527551F652F622B92DF80
:1014B000882301F3F39425960B5F1F4FCCCF81E077
:1014C000DF91CF911F910F91FF90EF900895809140
:1014D0002A0187FF11C08091E80082FD05C080913C
:1014E00029018111F8CF11C08091E8008B770BC0E2
:1014F00080912901882349F08091E80080FFF8CF8E
:101500008091E8008E778093E80008952091E400B0
:101510003091E50095E64091EC00842F817040FF0A
:1015200022C08091E80080FD1CC0809129018823A1
:1015300091F0853091F08091EB0085FD10C04091D5
:10154000E4005091E5004217530729F39A019150A6
:1015500011F784E0089582E0089583E0089581E022
:10156000089580E008954091E80042FFDECF08959D
:101570000F931F93CF93DF934BD052D0C8EDD0E0A1
:1015800088818F77888388818068888388818F7D30
:10159000888319BC1092290110922501109227010D
:1015A0001092260100EE10E0F80180818B7F80838D
:1015B00088818160888342E060E080E00BDFE1EEBB
:1015C000F0E080818E7F8083E2EEF0E080818160B8
:1015D0008083808188608083F80180818E7F808312
:1015E000888180618883DF91CF911F910F91089549
:1015F000E8EDF0E080818F7E8083E7EDF0E0808190
:101600008160808384E082BF81E080932801B0CF35
:10161000E8EDF0E080818E7F80831092E2000895F3
:101620001092DA001092E10008951F920F920FB607
:101630000F9211242F933F934F935F936F937F9358
:101640008F939F93AF93BF93EF93FF938091E100AC
:1016500082FF0AC08091E20082FF06C08091E10013
:101660008B7F8093E10094D98091DA0080FF1DC0C8
:101670008091D80080FF19C08091DA008E7F80931E
:10168000DA008091D90080FF0CC080E189BD82E141
:1016900089BD09B400FEFDCF81E0809329016AD99C
:1016A00004C019BC1092290166D98091E10080FF25
:1016B00018C08091E20080FF14C08091E2008E7F0C
:1016C0008093E2008091E20080618093E20080914B
:1016D000D80080628093D80019BC85E080932901EE
:1016E000BED18091E10084FF2FC08091E20084FF91
:1016F0002BC080E189BD82E189BD09B400FEFDCF28
:101700008091D8008F7D8093D8008091E1008F7EFA
:101710008093E1008091E2008F7E8093E2008091CF
:10172000E20081608093E20080912501882311F01E
:1017300084E007C08091E30087FD02C081E001C022
:1017400083E0809329018BD18091E10083FF22C047
:101750008091E20083FF1EC08091E100877F80932B
:10176000E10082E080932901109225018091E1003F
:101770008E7F8093E1008091E2008E7F8093E20073
:101780008091E20080618093E20042E060E080E0CE
:1017900021DE65D1FF91EF91BF91AF919F918F9124
:1017A0007F916F915F914F913F912F910F900FBE5D
:1017B0000F901F9018951F93CF93DF93CDB7DEB78F
:1017C000AA970FB6F894DEBF0FBECDBFEAE2F1E0F4
:1017D00088E08E0F9091F10091938E13FBCFD5D8B6
:1017E0008091E80083FF23C180912A0190912B0111
:1017F000953009F478C030F4913081F168F093307D
:1018000069F115C1983009F4E3C0993009F4F2C0C8
:10181000963009F00CC189C0803881F0823809F017
:1018200006C180912E018F708093E9008091EB00BA
:1018300085FB882780F91092E90006C08091260177
:1018400090912701911182609091E800977F909389
:10185000E8008093F1001092F100C5C0282F2D7F81
:1018600009F0E5C0882319F0823061F0E0C0809172
:101870002C01813009F0DBC0933009F080E08093C7
:1018800027012BC080912C01811127C080912E014E
:101890008F7009F4CCC08093E9002091EB0020FF09
:1018A0001CC0933021F48091EB00806214C09091B1
:1018B000EB0090619093EB0021E030E0A90102C0C1
:1018C000440F551F8A95E2F74093EA001092EA0010
:1018D0008091EB0088608093EB001092E90080918A
:1018E000E800877F83C08111A2C010912C011F776F
:1018F0008091E3008078812B8093E3008091E80061
:10190000877F8093E800E3DD8091E80080FFFCCFD3
:101910008091E30080688093E300111102C082E0AF
:1019200001C083E08093290182C08058823008F092
:101930007EC080912C0190912D018C3D53E0950744
:1019400071F583E08A838AE289834FB7F894DE01D8
:10195000139620E03EE051E2E32FF0E05093570071
:10196000E49120FF03C0E295EF703F5FEF708E2F90
:1019700090E0EA3010F0C79601C0C0968D939D9319
:101980002F5F243149F74FBF8091E800877F809314
:10199000E8006AE270E0CE01019618DC13C0AE01E7
:1019A0004F5F5F4F60912E010E942201BC01892B85
:1019B00009F43DC09091E800977F9093E8008981F9
:1019C0009A81A7DC8091E8008B778093E8002FC094
:1019D000803869F58091E800877F8093E8008091E6
:1019E00025018093F1008091E8008E778093E800D4
:1019F0006EDD1DC081111BC090912C019230B8F496
:101A00008091E800877F8093E800909325015FDD57
:101A100080912501811106C08091E30087FD02C0FD
:101A200081E001C084E0809329010E94BC04809180
:101A3000E80083FF0AC08091E800877F8093E80078
:101A40008091EB0080628093EB00AA960FB6F89429
:101A5000DEBF0FBECDBFDF91CF911F9108950895D6
:101A6000CF9380912901882399F0C091E900CF702C
:101A70009091EC00892F817090FD80E8C82B109226
:101A8000E9008091E80083FD96DECF70C093E90005
:101A9000CF9108955058BB27AA270ED075C166D1A3
:101AA00030F06BD120F031F49F3F11F41EF45BC194
:101AB0000EF4E095E7FB51C1E92F77D180F3BA1717
:101AC000620773078407950718F071F49EF58FC1BC
:101AD0000EF4E0950B2EBA2FA02D0B01B901900149
:101AE0000C01CA01A0011124FF27591B99F0593F8D
:101AF00050F4503E68F11A16F040A22F232F342FD5
:101B00004427585FF3CF469537952795A795F04022
:101B10005395C9F77EF41F16BA0B620B730B840B37
:101B2000BAF09150A1F0FF0FBB1F661F771F881FEF
:101B3000C2F70EC0BA0F621F731F841F48F4879547
:101B400077956795B795F7959E3F08F0B3CF939536
:101B5000880F08F09927EE0F979587950895D9D0AB
:101B600008F481E008950CD00FC107D140F0FED0F9
:101B700030F021F45F3F19F0F0C0511139C1F3C0CA
:101B800014D198F39923C9F35523B1F3951B550B41
:101B9000BB27AA2762177307840738F09F5F5F4F40
:101BA000220F331F441FAA1FA9F333D00E2E3AF081
:101BB000E0E830D091505040E695001CCAF729D09B
:101BC000FE2F27D0660F771F881FBB1F26173707EA
:101BD0004807AB07B0E809F0BB0B802DBF01FF271A
:101BE00093585F4F2AF09E3F510568F0B6C000C180
:101BF0005F3FECF3983EDCF3869577956795B79554
:101C0000F7959F5FC9F7880F911D9695879597F96E
:101C10000895E1E0660F771F881FBB1F62177307E7
:101C20008407BA0720F0621B730B840BBA0BEE1FFC
:101C300088F7E095089504D06894B111D9C008954B
:101C4000BCD088F09F5790F0B92F9927B751A0F0DA
:101C5000D1F0660F771F881F991F1AF0BA95C9F740
:101C600012C0B13081F0C3D0B1E00895C0C0672F79
:101C7000782F8827B85F39F0B93FCCF386957795F0
:101C80006795B395D9F73EF49095809570956195D9
:101C90007F4F8F4F9F4F0895E89409C097FB3EF404
:101CA00090958095709561957F4F8F4F9F4F9923A9
:101CB000A9F0F92F96E9BB279395F6958795779527
:101CC0006795B795F111F8CFFAF4BB0F11F460FFE7
:101CD0001BC06F5F7F4F8F4F9F4F16C0882311F03F
:101CE00096E911C0772321F09EE8872F762F05C053
:101CF000662371F096E8862F70E060E02AF09A95EE
:101D0000660F771F881FDAF7880F9695879597F9E2
:101D10000895990F0008550FAA0BE0E8FEEF16167C
:101D20001706E807F907C0F012161306E407F507CF
:101D300098F0621B730B840B950B39F40A2661F043
:101D4000232B242B252B21F408950A2609F4A140E6
:101D5000A6958FEF811D811D089597F99F6780E8F3
:101D600070E060E008959FEF80EC089500240A94ED
:101D70001616170618060906089500240A94121666
:101D80001306140605060895092E0394000C11F499
:101D9000882352F0BB0F40F4BF2B11F460FF04C046
:101DA0006F5F7F4F8F4F9F4F089557FD9058440F9F
:101DB000551F59F05F3F71F04795880F97FB991FAA
:101DC00061F09F3F79F08795089512161306140667
:101DD000551FF2CF4695F1DF08C0161617061806F4
:101DE000991FF1CF86957105610508940895E894CF
:101DF000BB2766277727CB0197F908950BD0C4CF6F
:101E0000B5DF28F0BADF18F0952309F0A6CFABCFE5
:101E10001124EECFCADFA0F3959FD1F3950F50E0C8
:101E2000551F629FF001729FBB27F00DB11D639F8C
:101E3000AA27F00DB11DAA1F649F6627B00DA11D32
:101E4000661F829F2227B00DA11D621F739FB00DD8
:101E5000A11D621F839FA00D611D221F749F332748
:101E6000A00D611D231F849F600D211D822F762FE1
:101E70006A2F11249F5750408AF0E1F088234AF0DE
:101E8000EE0FFF1FBB1F661F771F881F915050402A
:101E9000A9F79E3F510570F060CFAACF5F3FECF3EA
:101EA000983EDCF3869577956795B795F795E79516
:101EB0009F5FC1F7FE2B880F911D9695879597F927
:101EC0000895FA01EE0FFF1F30962105310599F1B3
:101ED0006115710561F48038BFE39B0749F168948F
:101EE0009038810561F08038BFEF9B0741F099235E
:101EF00042F5FF3FE1053105210511F1E894089411
:101F0000E795D901AA2329F4AB2FBE2FF85FD0F3B0
:101F100010C0FF5F70F4A695E0F7F73950F019F0A4
:101F2000FF3A38F49F779F930CD00F9007FC90589E
:101F300008953EF018CF60E070E080E89FE30895D8
:101F40004FE79F775F934F933F932F939ED02F91AF
:101F50003F914F915F9152DF05C019F40EF0FDCE15
:101F600046CF01CF2ADFC8F39638C0F707F80F92A3
:101F7000E8942BE33AEA48EB5FE74EDF0F920F92CB
:101F80000F924DB75EB70F92C0D0ECEAF0E016D0DA
:101F90004F915F91EF91FF91E595EE1FFF1F49F083
:101FA000FE57E0684427EE0F441FFA95E1F741958C
:101FB000550B32D00F9007FE26C00895DF93CF93C4
:101FC0001F930F93FF92EF92DF927B018C01689435
:101FD00005C0DA2EEF011EDFFE01E894A5912591E0
:101FE000359145915591AEF3EF0166DDFE01970104
:101FF000A801DA9479F7DF90EF90FF900F911F918D
:10200000CF91DF9108959B01AC0160E070E080E822
:102010009FE3A9CDA2CEACC0D0DEE8F39923D9F3DB
:10202000940F511DBBF39150504094F059F0882308
:1020300032F0660F771F881F91505040C1F79E3FC6
:10204000510544F7880F911D9695879597F9089546
:102050005F3FACF0983E9CF0BB27869577956795DF
:10206000B79508F4B1609395C1F7BB0F58F711F419
:1020700060FFE8CF6F5F7F4F8F4F9F4FE3CFB8CEAA
:102080000EF076C070CE689468CE97DEC8F39923C0
:10209000D1F3C6F3DF93CF931F930F93FF92C92F12
:1020A000DD2788232AF02197660F771F881FDAF72C
:1020B00020E030E040E85FEB9FE3883920F0803E8D
:1020C00030F021968F77E7DCE4EDF0E003C0E3DC4D
:1020D000E1E0F1E073DF8B01BE01EC01FB2E6F57F5
:1020E00071097595771F880B990BD8DD28E132E7C8
:1020F00041E35FE38FDEAF2D9801AE01FF900F91BA
:102100001F91CF91DF91D8DC3FCEFA01DC01AA0FFD
:10211000BB1F9B01AC01BF5728F42227332744275C
:1021200050781FC0B75188F4AB2F002446953795DF
:102130002795011CA395D2F3002069F0220F331FCD
:10214000441FB395DAF30DD0A5CC61307105A0E83A
:102150008A07B94630F49B01AC01662777278827A8
:102160009078309621F02083318342835383089501
:102170009F3F31F0915020F4879577956795B795FB
:10218000880F911D9695879597F90895DB018F9398
:102190009F934ED0BF91AF91A29F800D911DA39FA1
:1021A000900DB29F900D11240895AA1BBB1B51E105
:1021B00007C0AA1FBB1FA617B70710F0A61BB70BB7
:1021C000881F991F5A95A9F780959095BC01CD015C
:1021D000089597FB072E16F4009406D077FD08D0DB
:1021E000E4DF07FC05D03EF4909581959F4F08955C
:1021F000709561957F4F0895052E97FB16F4009416
:102200000FD057FD05D024D007FC02D046F408C0FB
:1022100050954095309521953F4F4F4F5F4F089512
:1022200090958095709561957F4F8F4F9F4F089542
:1022300031D0A59F900DB49F900DA49F800D911D4E
:1022400011240895B7FFF4CFF3DF821B930B089599
:10225000A1E21A2EAA1BBB1BFD010DC0AA1FBB1FAA
:10226000EE1FFF1FA217B307E407F50720F0A21B1C
:10227000B30BE40BF50B661F771F881F991F1A9489
:1022800069F760957095809590959B01AC01BD01B3
:10229000CF010895A29FB001B39FC001A39F700D0D
:1022A000811D1124911DB29F700D811D1124911D5E
:1022B0000895FB01DC0104C08D910190801921F487
:1022C00041505040C8F7881B990B0895FB01DC0171
:1022D00002C001900D9241505040D8F70895DC01A2
:1022E00001C06D9341505040E0F70895F894FFCF3E
:1022F0000081080000011D0108000000000000002E
:00000001FF
