:10000000C3C00000DDC00000DBC00000D9C000009C
:10001000D7C00000D5C00000D3C00000D1C0000090
:10002000CFC00000CDC000000C941A08C9C0000069
:10003000C7C00000C5C00000C3C00000C1C00000B0
:10004000BFC00000BDC00000BBC00000B9C00000C0
:10005000B7C00000B5C00000B3C00000B1C00000D0
:10006000AFC00000ADC00000ABC00000A9C00000E0
:10007000A7C00000A5C00000A3C00000A1C00000F0
:100080009FC000009DC000009BC0000099C0000000
:1000900097C0000095C0000093C0000091C0000010
:1000A0008FC000008DC000008BC0000030035400E2
:1000B000680072007500730074006D0061007300C9
:1000C000740065007200200043006F007500670037
:1000D00061007200200054005100530000000E0324
:1000E0005500720069005F006200610000000403B7
:1000F000090409022200010100C0320904000001C4
:10010000030000000921110100012262000705819E
:100110000308000512011001000000084F04BBBBDA
:1001200002000102000105010904A1010901A10069
:100130000930093116000026FF0036000046FF0096
:10014000950275088102093216000026FF0F36005D
:100150000046FF0F9501750C810209330934160022
:100160000026FF0336000046FF039502750A810250
:10017000C005091901290A150025017501950A8193
:1001800002750695018101C011241FBECFEFDAE090
:10019000DEBFCDBF11E0A0E0B1E0EAEDF5E102C0C5
:1001A00005900D92A031B107D9F721E0A0E1B1E0AF
:1001B00001C01D92A133B207E1F728D10C94EB0ADC
:1001C0001FCF292F332723303105B9F05CF42130BC
:1001D000310569F12230310579F582E290E022EFB4
:1001E00030E02EC021323105E9F02232310521F50F
:1001F00082E690E026E231E023C099278130910524
:1002000041F08230910541F0892BB1F4EEEEF0E03F
:1002100005C0EEEDF0E002C0ECEAF0E0849190E081
:100220009F010EC089E090E024E031E009C082E146
:1002300090E024E131E004C080E090E020E030E094
:10024000FA0131832083089580937C0090FF04C0DD
:1002500080917B00806203C080917B008F7D8093C2
:100260007B0080917A00806480937A0080917A008C
:1002700084FFFCCF80917A00806180937A00809126
:100280007800909179000895806490E0DDDF9C0112
:1002900040E050E02A5F310941095109AFEFB0E079
:1002A0000E94930A28E532E040E050E00E94770A7D
:1002B000822F809508958798EEE7F0E0808180682E
:1002C0008083869880818064808385988081806225
:1002D00080838498808180618083ECE7F0E0808176
:1002E0008064808387E880937A000895269A2E9A06
:1002F000209A289A84B1866084B923982B9A8DB568
:100300008E7F8DBD209880E58CBD08958AB1836174
:100310008AB98BB183618BB957986E9824982598C8
:1003200008952E9881E08EBD0DB407FEFDCF80EAC2
:100330008EBD0DB407FEFDCF8EB590E08F70382FC7
:1003400022271EBC0DB407FEFDCF8EB52E9A282B9A
:1003500040E050E02E55314041095109A8E3B1E396
:100360000E94930A20E137E240E050E00E94770AC1
:10037000C9010895611188CF806490E065DF9C0118
:1003800040E050E02A5F310941095109AFEFB0E088
:100390000E94930A28E532E040E050E00E94770A8C
:1003A000822F0895CF9384E06FDFC82F84E06CDF45
:1003B000282F30E02C0F311D3595279520931A01F9
:1003C00060E085E0D7DFC82F60E085E0D3DF282F2D
:1003D00030E02C0F311D3595279520931B01CF91CF
:1003E000089584B7877F84BF88E10FB6F89480931F
:1003F0006000109260000FBE90E080E80FB6F894A5
:1004000080936100909361000FBEF7C5EADF789496
:100410007DDF6CDF50DFC6DF80E091E0E3D20E9439
:10042000340AFACF0895089580E091E0C8D2E2EE50
:10043000F0E0808184608083089580E091E08DC148
:1004400080910E0190910F01009729F001979093F0
:100450000F0180930E010895EF92FF920F931F9367
:10046000CF93DF93E9015DDF2091160140911701E1
:10047000342F3F70880F991F820F931F63E070E045
:100480000E94500ACB019F70821B930B04964B81F4
:10049000099718F06A83972F02C02A83932F9F70C1
:1004A000842F807F892B8B835C9884E0EDDE209104
:1004B00010014091120193E0299F90011124E4E082
:1004C0008E9F200D311D1124C901840F911D840FB1
:1004D000911D20911401820F911D6AE070E0F4D704
:1004E000688320911A01CB01AA2797FDA095BA2F06
:1004F000821B9109A109B1090E964D9708F4288332
:10050000E9B0FF24E7FCF094E094F094EE24FF0CB3
:10051000EE1CFF24A6E0EE0CFF1CAA95E1F7669BFB
:1005200003C0E894E1F802C06894E1F85C9A599835
:1005300060E085E01FDF2091110140911301F3E09D
:100540002F9F9001112494E0899F200D311D1124CB
:10055000C901840F911D840F911D20911501820FF7
:10056000911D6AE070E0B0D7698320911B01CB0137
:10057000AA2797FDA095BA2F821B9109A109B1095D
:100580000E964D9708F429834F9B03C0E894E2F838
:1005900002C06894E2F8669B03C0E894E3F802C0E6
:1005A0006894E3F81C9B03C0E894E4F802C06894E4
:1005B000E4F81D9B03C0E894E5F802C06894E5F8F0
:1005C000599A589887E490E03FDE880F991F409130
:1005D0001801429546954695437050911901652F33
:1005E000660F660F262F242B352F329536953695BC
:1005F0003370820F931F63E070E052D7962F92956D
:10060000990F990F907C8C818F73892B8C837295B5
:10061000770F770F707C66956695672B6D834F9982
:1006200002C06894E7F8669902C06894F0F81C99D3
:1006300002C06894F1F81D9902C06894F2F8589AC3
:1006400086E490E001DE880F991F409117014295E2
:100650004F7050911801652F6295607F262F242BD3
:1006600052955F70352F3370820F931F63E070E0F7
:1006700017D7962F9295907F8B818F70892B8B83C4
:1006800062956F708C81807C73707295707F862B01
:10069000872B8C83C701969587958E8393708F8166
:1006A0008C7F892B8F8380911201909113019093FD
:1006B0001501809314018091100190911101909384
:1006C00013018093120188818093100189818093A6
:1006D00011018A819B81809316018C818295869578
:1006E000869583703D81232F220F220F282B422FC6
:1006F0004295440F440F407C809118018F73842BE6
:1007000080931801307C26952695232B2093190180
:100710003B8132953F704C81242F2295207F232BE3
:10072000322F3295307F9F70932B90931701229533
:100730002F70807C4073822B842B8093180188E07B
:1007400090E0F8019183808381E0DF91CF911F9148
:100750000F91FF90EF90089508956F927F928F927E
:100760009F92AF92BF92CF92DF92EF92FF920F9340
:100770001F93CF93DF9300D01F92CDB7DEB77C01DC
:10078000ADB6BEB68091E80083FF02C1F70180815B
:1007900090E020912D0130912E012817390709F0A2
:1007A000F7C080912A01833009F499C030F4813078
:1007B00071F0823009F4D0C0EBC08A3009F4B4C0C3
:1007C0008B3009F49DC0893009F0E2C04BC08091A4
:1007D0002901813A09F0DCC08DB69EB61A821982D1
:1007E00080912B0110912C018B83F701408550E003
:1007F0008DB79EB7841B950B0FB6F8949EBF0FBEA6
:100800008DBFEDB7FEB731966F0160E070E0CF01AC
:10081000DBD64FEF410F8E010F5F1F4F9601BE01D8
:100820006D5F7F4FC70118DEF701868197810097C2
:1008300021F0408550E0B601BED61092E9008091CB
:10084000E800877F8093E8008B8181118093F1001D
:1008500069817A81C601CBD18091E8008B77809342
:10086000E80037C080912901813209F091C08DB62E
:100870009EB600912F011091300170902B01609075
:100880002C018DB79EB7801B910B0FB6F8949EBFBD
:100890000FBE8DBFEDB7FEB731966F018091E800B6
:1008A000877F8093E800B801CF0102D28091E800F1
:1008B0008E778093E80021E0711001C020E030E0E5
:1008C000021B130B2C0D3D1D4FEF460D672DC7016D
:1008D00043DF0FB6F8949EBE0FBE8DBE59C0809107
:1008E0002901813A09F054C08091E800877F809304
:1008F000E8008091E80080FFFCCFF701818540C0CF
:1009000080912901813209F043C08091E800877FFE
:100910008093E800E1D290912B0181E0911101C018
:1009200080E0F701818734C080912901813281F50F
:100930008091E800877F8093E800CED280912B01E0
:1009400090912C01882736E0969587953A95E1F7A6
:10095000F701958784871CC080912901813AC1F4F1
:100960008091E800877F8093E8008091E80080FF15
:10097000FCCFF70184859585969587959695879503
:100980008093F1008091E8008E778093E800A4D2F4
:100990000FB6F894BEBE0FBEADBE0F900F900F9075
:1009A000DF91CF911F910F91FF90EF90DF90CF904B
:1009B000BF90AF909F908F907F906F900895FC01B3
:1009C000399627E0DF011D922A95E9F721E0FC0125
:1009D000218724EF31E03587248723E0248361E0F9
:1009E00001963DC25F926F927F928F929F92AF92DB
:1009F000BF92CF92DF92EF92FF920F931F93CF930C
:100A0000DF9300D01F92CDB7DEB77C01ADB6BEB686
:100A100080912801843009F08AC08091E40090918F
:100A2000E500F701228533852817390709F47FC0CF
:100A300081818F708093E9008091E80085FF77C005
:100A40008DB69EB6408550E08DB79EB7841B950B42
:100A50000FB6F8949EBF0FBE8DBFEDB7FEB73196AF
:100A60006F011B821A82198260E070E0CF01ACD561
:100A70008E010F5F1F4F960140E0BE016D5F7F4FFB
:100A8000C701EADC682EF70184859585892B41F042
:100A900021E086859785892B09F020E0722E01C020
:100AA000712CF701068117810115110589F0498123
:100AB0005A81B801C60172D555245394892B09F483
:100AC000512CF701408550E0B601C80174D501C032
:100AD000512C29813A81232BF1F0611004C051106F
:100AE00002C070FE18C0F7018485958597878687B8
:100AF00081818F708093E9008B8181118093F10057
:100B000069817A8140E050E0C60129D08091E800F7
:100B10008E778093E8008091E4009091E500F701E2
:100B2000938782870FB6F8949EBE0FBE8DBE0FB618
:100B3000F894BEBE0FBEADBE0F900F900F90DF9128
:100B4000CF911F910F91FF90EF90DF90CF90BF90CA
:100B5000AF909F908F907F906F905F900895CF920D
:100B6000DF92EF92FF920F931F93CF93DF937C015D
:100B70008B01EA01D2D1811131C0209731F08881F7
:100B80009981081B190BE80EF91EC12CD12C0115F7
:100B9000110519F18091E80085FD14C08091E800ED
:100BA0008E778093E80060D4209741F08881998106
:100BB0008C0D9D1D9983888385E010C0AED188235C
:100BC00031F30CC0F70181917F018093F100015056
:100BD0001109FFEFCF1ADF0ADACF80E0DF91CF9162
:100BE0001F910F91FF90EF90DF90CF90089520918B
:100BF0002F01309130012617370748F06115710534
:100C000039F42091E8002E772093E80001C0B90163
:100C1000FC0120E061157105B9F18091280188235C
:100C200009F440C0853009F43FC08091E80083FD9D
:100C30003DC08091E80082FF06C08091E80082FFFD
:100C400026C080E008958091E80080FFE3CF2091E6
:100C5000F3008091F20090E0922B6115710551F044
:100C60008830910538F421912093F1006150710989
:100C70000196F3CF21E0089709F020E08091E80089
:100C80008E778093E800C6CF2111C7CFD6CF809151
:100C90002801882339F0853039F08091E80083FFFE
:100CA000CCCF04C082E0089583E0089581E00895E8
:100CB0006115710529F42091E8002B772093E80055
:100CC0006115710541F120912801222369F1253038
:100CD00069F12091E80023FD23C02091E80022FF64
:100CE000F2CFFC01CF014091F3002091F20030E0FF
:100CF000342B232B01F38091F1008193CF016150BC
:100D000071096115710571F7D6CF8091280188238B
:100D100059F0853059F08091E80080FFF6CF02C08D
:100D200081E0089580E0089582E0089583E00895C9
:100D300020912F01309130012617370748F06115B7
:100D4000710539F42091E8002E772093E80001C066
:100D5000B901FC0120E061157105C1F18091280104
:100D6000882309F441C0853009F440C08091E8002F
:100D700083FD3EC08091E80082FF06C08091E800BC
:100D800082FF27C080E008958091E80080FFE3CFD4
:100D90002091F3008091F20090E0922B6115710593
:100DA00059F08830910540F424912093F100319658
:100DB000615071090196F2CF21E0089709F020E017
:100DC0008091E8008E778093E800C5CF2111C6CFCF
:100DD000D5CF80912801882339F0853039F0809172
:100DE000E80083FFCBCF04C082E0089583E008953C
:100DF00081E00895982F973058F59093E90098175F
:100E000039F07091EC002091ED005091F00003C09A
:100E1000242F762F50E021FF19C03091EB003E7F48
:100E20003093EB003091ED003D7F3093ED00309139
:100E3000EB0031603093EB007093EC002093ED00F9
:100E40005093F0002091EE0027FF07C09F5FD3CFA3
:100E50008F708093E90081E0089580E008950F93FA
:100E60001F93CF93DF93062FEC0110E0101771F161
:100E70009881992341F12C81E981FA817B81892F25
:100E80008F70873010F080E022C0223010F056E0E2
:100E900001C052E028E030E040E02E173F0720F488
:100EA0004F5F220F331FF9CF4295407F452B692FAB
:100EB000661F6627661F90E4799F90011124622BBC
:100EC00099DF882301F31F5F2596D0CF81E0DF9162
:100ED000CF911F910F9108958091290187FD05C041
:100EE0008091E80080FF0EC012C08091E80082FD72
:100EF00005C0809128018111F8CF08958091E80004
:100F00008B7708C0809128018111EACF08958091E4
:100F1000E8008E778093E80008958091E400909136
:100F2000E50045E62091EC0020FF21C02091E8007B
:100F300020FD21C020912801222389F0253089F04D
:100F40002091EB0025FD0FC02091E4003091E500D9
:100F50002817390739F3415041F0C901E3CF82E046
:100F6000089583E0089581E0089584E00895209134
:100F7000E80022FFDFCF80E008950F931F93CF9307
:100F8000DF934BD052D0C8EDD0E088818F77888333
:100F900088818068888388818F7D888319BC1092BE
:100FA000280110922401109226011092250100EED2
:100FB00010E0F80180818B7F808388818160888345
:100FC00042E060E080E016DFE1EEF0E080818E7FBD
:100FD0008083E2EEF0E080818160808380818860A0
:100FE0008083F80180818E7F8083888180618883FF
:100FF000DF91CF911F910F910895E8EDF0E080818E
:101000008F7E8083E7EDF0E080818160808384E0E3
:1010100082BF81E080932701B0CFE8EDF0E08081CE
:101020008E7F80831092E20008951092DA00109271
:10103000E10008951F920F920FB60F9211242F9383
:101040003F934F935F936F937F938F939F93AF9350
:10105000BF93EF93FF938091E10082FF0AC08091DC
:10106000E20082FF06C08091E1008B7F8093E10067
:10107000E7D98091DA0080FF1DC08091D80080FF01
:1010800019C08091DA008E7F8093DA008091D900B8
:1010900080FF0CC080E189BD82E189BD09B400FEFA
:1010A000FDCF81E080932801BDD904C019BC109206
:1010B0002801B9D98091E10080FF18C08091E20039
:1010C00080FF14C08091E2008E7F8093E2008091C7
:1010D000E20080618093E2008091D800806280937A
:1010E000D80019BC85E080932801BDD18091E10032
:1010F00084FF2FC08091E20084FF2BC080E189BD76
:1011000082E189BD09B400FEFDCF8091D8008F7DBA
:101110008093D8008091E1008F7E8093E1008091E0
:10112000E2008F7E8093E2008091E20081608093F4
:10113000E20080912401882311F084E007C08091AF
:10114000E30087FF02C083E001C081E080932801B3
:101150008AD18091E10083FF22C08091E20083FF69
:101160001EC08091E100877F8093E10082E0809340
:101170002801109224018091E1008E7F8093E1008C
:101180008091E2008E7F8093E2008091E200806196
:101190008093E20042E060E080E02CDE64D1FF91C9
:1011A000EF91BF91AF919F918F917F916F915F91DF
:1011B0004F913F912F910F900FBE0F901F90189558
:1011C0001F93CF93DF93CDB7DEB7AA970FB6F894EE
:1011D000DEBF0FBECDBFE9E2F1E08091F100819367
:1011E00021E0E133F207C9F728D98091E80083FFB5
:1011F00022C19091290180912A01853009F477C09C
:1012000030F4813081F168F0833069F114C18830A5
:1012100009F4E2C0893009F4F1C0863009F00BC14D
:1012200088C0903881F0923809F005C180912D0175
:101230008F708093E9008091EB0085FB882780F90F
:101240001092E90006C0809125019091260191112C
:1012500082609091E800977F9093E8008093F1007E
:101260001092F100C4C0292F2D7F09F0E4C099230A
:1012700019F0923061F0DFC090912B01913009F0AC
:10128000DAC0833009F090E0909326012AC0909153
:101290002B01911126C020912D012F7009F4CBC094
:1012A0002093E9009091EB0090FF1BC0833021F464
:1012B0008091EB00806213C08091EB00806180938D
:1012C000EB0081E090E0022E01C0880F0A94EAF75B
:1012D0008093EA001092EA008091EB00886080938E
:1012E000EB001092E9008091E800877F83C09111A4
:1012F000A2C010912B011F778091E3008078812B91
:101300008093E3008091E800877F8093E800E4DD2C
:101310008091E80080FFFCCF8091E300806880939B
:10132000E300112311F083E001C082E080932801E3
:1013300082C09058923008F07EC080912B0190912D
:101340002C018C3D23E0920771F583E08A838AE2C9
:1013500089834FB7F894DE01139620E03EE051E216
:10136000E32FF0E050935700E49120FF03C0E29593
:10137000EF703F5FEF708E2F90E0EA3010F0C7966D
:1013800001C0C0968D939D932F5F243149F74FBFC5
:101390008091E800877F8093E8006AE270E0CE01E8
:1013A000019625DC13C0AE014F5F5F4F60912D01A8
:1013B0000E94E100009709F43EC02091E800277FD9
:1013C0002093E800BC0189819A81B2DC8091E80019
:1013D0008B778093E8002FC0903869F58091E80002
:1013E000877F8093E800809124018093F1008091B1
:1013F000E8008E778093E8006FDD1DC091111BC05F
:1014000090912B019230B8F48091E800877F80930F
:10141000E8009093240160DD80912401811104C0D3
:101420008091E30087FF02C084E001C081E08093E7
:1014300028010E9414028091E80083FF0AC0809175
:10144000E800877F8093E8008091EB0080628093C2
:10145000EB00AA960FB6F894DEBF0FBECDBFDF91AA
:10146000CF911F9108950895CF93809128018823EB
:10147000A9F08091E9008F709091EC0090FF02C07C
:1014800090E801C090E0C92FC82B1092E90080912C
:10149000E80083FD95DECF70C093E900CF910895F9
:1014A000AA1BBB1B51E107C0AA1FBB1FA617B7078A
:1014B00010F0A61BB70B881F991F5A95A9F78095A6
:1014C0009095BC01CD01089597FB072E16F400946A
:1014D00006D077FD08D0E4DF07FC05D03EF49095F8
:1014E00081959F4F0895709561957F4F0895052EC2
:1014F00097FB16F400940FD057FD05D01ED007FCC3
:1015000002D046F408C050954095309521953F4F44
:101510004F4F5F4F089590958095709561957F4FDF
:101520008F4F9F4F08952BD0A59F900DB49F900D86
:10153000A49F800D911D11240895A1E21A2EAA1BCB
:10154000BB1BFD010DC0AA1FBB1FEE1FFF1FA21773
:10155000B307E407F50720F0A21BB30BE40BF50B70
:10156000661F771F881F991F1A9469F760957095F9
:10157000809590959B01AC01BD01CF010895A29F7C
:10158000B001B39FC001A39F700D811D1124911D57
:10159000B29F700D811D1124911D0895FB01DC0186
:1015A00004C08D910190801921F441505040C8F73A
:1015B000881B990B0895FB01DC0102C001900D927C
:1015C00041505040D8F70895DC0101C06D9341505F
:0A15D0005040E0F70895F894FFCFB3
:1015DA000081080000011C01080000000000000052
:00000001FF
