:10000000CCC00000E6C00000E4C00000E2C0000078
:10001000E0C00000DEC00000DCC00000DAC000006C
:10002000D8C00000D6C00000E0C70000D2C0000069
:10003000D0C00000CEC00000CCC00000CAC000008C
:10004000C8C00000C6C00000C4C00000C2C000009C
:10005000C0C00000BEC00000BCC00000BAC00000AC
:10006000B8C00000B6C00000B4C00000B2C00000BC
:10007000B0C00000AEC00000ACC00000AAC00000CC
:10008000A8C00000A6C00000A4C00000A2C00000DC
:10009000A0C000009EC000009CC000009AC00000EC
:1000A00098C0000096C0000094C0000030035400C7
:1000B000680072007500730074006D0061007300C9
:1000C000740065007200200043006F007500670037
:1000D0006100720020005400510053000000200312
:1000E0005500720069002000420065006E002D007E
:1000F0004100760072006100680061006D00000040
:100100000403090409022200010100C032090400AD
:100110000001030000000921110100012262000713
:1001200005810308000512011001000000084F04BA
:10013000BBBB01000102000105010904A101090185
:10014000A1000930093116000026FF0036000046E4
:10015000FF00950275088102093216000026FF0F84
:1001600036000046FF0F9501750C810209330934F2
:1001700016000026FF0336000046FF039502750AAD
:100180008102C005091901290A150025017501958B
:100190000A8102750695018101C011241FBECFEFAF
:1001A000DAE0DEBFCDBF11E0A0E0B1E0EEE8F5E1BE
:1001B00002C005900D92A031B107D9F721E0A0E16E
:1001C000B1E001C01D92AF32B207E1F707D10C9444
:1001D000C50A16CF292F332723303105B9F05CF437
:1001E0002130310569F12230310579F582E290E064
:1001F00024E031E02EC021323105E9F02232310510
:1002000021F582E690E028E331E023C09927813090
:10021000910541F08230910541F0892BB1F4E0E085
:10022000F1E005C0EEEDF0E002C0ECEAF0E0849110
:1002300090E09F010EC089E090E026E131E009C026
:1002400082E190E026E231E004C080E090E020E02E
:1002500030E0FA0131832083089580937C0090FF81
:1002600004C080917B00806203C080917B008F7D01
:1002700080937B0080917A00806480937A008091E3
:100280007A0084FFFCCF80917A00806180937A00AD
:10029000809178009091790008958798EEE7F0E0DA
:1002A000808180688083869880818064808385983F
:1002B0008081806280838498808180618083ECE784
:1002C000F0E080818064808387E880937A000895DD
:1002D000269A2E9A209A289A84B1866084B9239807
:1002E0002B9A8DB58E7F8DBD209880E58CBD0895AD
:1002F0008AB183618AB98BB183618BB957986E9843
:100300002498259808952E9881E08EBD0DB407FE9F
:10031000FDCF80EA8EBD0DB407FEFDCF8EB590E017
:100320008F70382F22271EBC0DB407FEFDCF8EB56F
:100330002E9A282B40E050E02E55314041095109BA
:10034000A8E3B1E30E946D0A20E137E240E050E00B
:100350000E94510AC9010895806490E06623A9F0C3
:100360007CDF9C0140E050E02A5F310941095109DE
:10037000AFEFB0E00E946D0A28E532E040E050E0C7
:100380000E94510A822F8095089567DF9C0140E00A
:1003900050E02A5F310941095109AFEFB0E00E94F6
:1003A0006D0A28E532E040E050E00E94510A822FB9
:1003B000089584B7877F84BF88E10FB6F89480934F
:1003C0006000109260000FBE90E080E80FB6F894D5
:1003D00080936100909361000FBEEAC5EADF7894D4
:1003E00087DF76DF5ADF80E091E0D7D20E940E0AE5
:1003F000FACF0895089580E091E0BCD2E2EEF0E0FB
:10040000808184608083089580E091E081C1809143
:100410000E0190910F01009729F0019790930F0121
:1004200080930E010895EF92FF920F931F93CF9345
:10043000DF93E90168DF2091160140911701342F05
:100440003F70880F991F820F931F63E070E00E9436
:100450002A0ACB019F70821B930B04964B8109974C
:1004600018F06A83972F02C02A83932F9F70842FDE
:10047000807F892B8B835C9884E490E0EEDE9C0186
:1004800040E050E02A5F310941095109AFEFB0E087
:100490000E946D0A28E532E040E050E00E94510AD7
:1004A0002095809110013091120143E0849FC0019A
:1004B0001124E4E02E9F800D911D1124830F911DC6
:1004C000830F911D20911401820F911D6AE070E04D
:1004D000D5D76883E9B0FF24E7FCF094E094F0946A
:1004E000EE24FF0CEE1CFF2476E0EE0CFF1C7A9548
:1004F000E1F7669B03C0E894E1F802C06894E1F874
:100500005C9A599860E085E027DF209111014091C5
:100510001301F3E02F9F9001112494E0899F200D97
:10052000311D1124C901840F911D840F911D20914B
:100530001501820F911D6AE070E0A0D769834F9B7F
:1005400003C0E894E2F802C06894E2F8669B03C036
:10055000E894E3F802C06894E3F81C9B03C0E894B5
:10056000E4F802C06894E4F81D9B03C0E894E5F841
:1005700002C06894E5F8599A589887E490E06DDED7
:10058000880F991F409118014295469546954370F2
:1005900050911901652F660F660F262F242B352FDA
:1005A0003295369536953370820F931F63E070E075
:1005B00051D7962F9295990F990F907C8C818F73BC
:1005C000892B8C837295770F770F707C6695669573
:1005D000672B6D834F9902C06894E7F8669902C053
:1005E0006894F0F81C9902C06894F1F81D9902C053
:1005F0006894F2F8589A86E490E02FDE880F991FED
:100600004091170142954F7050911801652F6295E6
:10061000607F262F242B52955F70352F3370820F09
:10062000931F63E070E016D7962F9295907F8B8191
:100630008F70892B8B8362956F708C81807C737037
:100640007295707F862B872B8C83C7019695879533
:100650008E8393708F818C7F892B8F838091120181
:1006600090911301909315018093140180911001D2
:1006700090911101909313018093120188818093CE
:1006800010018981809311018A819B8180931601D9
:100690008C8182958695869583703D81232F220FCC
:1006A000220F282B422F4295440F440F407C80910B
:1006B00018018F73842B80931801307C2695269522
:1006C000232B209319013B8132953F704C81242FBD
:1006D0002295207F232B322F3295307F9F70932BD2
:1006E0009093170122952F70807C4073822B842B6E
:1006F0008093180188E090E0F8019183808381E085
:10070000DF91CF911F910F91FF90EF900895089581
:100710006F927F928F929F92AF92BF92CF92DF9211
:10072000EF92FF920F931F93CF93DF9300D01F920E
:10073000CDB7DEB77C01ADB6BEB68091E80083FFD1
:1007400002C1F701808190E020912B0130912C01B2
:100750002817390709F0F7C080912801833009F480
:1007600099C030F4813071F0823009F4D0C0EBC010
:100770008A3009F4B4C08B3009F49DC0893009F087
:10078000E2C04BC080912701813A09F0DCC08DB6F0
:100790009EB61A8219828091290110912A018B83B9
:1007A000F701408550E08DB79EB7841B950B0FB6BF
:1007B000F8949EBF0FBE8DBFEDB7FEB731966F01A7
:1007C00060E070E0CF01DAD64FEF410F8E010F5F8E
:1007D0001F4F9601BE016D5F7F4FC70124DEF701F9
:1007E00086819781009721F0408550E0B601BDD603
:1007F0001092E9008091E800877F8093E8008B8168
:1008000081118093F10069817A81C601CBD18091F9
:10081000E8008B778093E80037C080912701813210
:1008200009F091C08DB69EB600912D0110912E0158
:100830007090290160902A018DB79EB7801B910BA3
:100840000FB6F8949EBF0FBE8DBFEDB7FEB73196C1
:100850006F018091E800877F8093E800B801CF01A5
:1008600002D28091E8008E778093E80021E0711039
:1008700001C020E030E0021B130B2C0D3D1D4FEF9B
:10088000460D672DC70143DF0FB6F8949EBE0FBE1D
:100890008DBE59C080912701813A09F054C08091E2
:1008A000E800877F8093E8008091E80080FFFCCF1C
:1008B000F701818540C080912701813209F043C052
:1008C0008091E800877F8093E800E1D29091290130
:1008D00081E0911101C080E0F701818734C08091EF
:1008E0002701813281F58091E800877F8093E800BD
:1008F000CED28091290190912A01882736E09695E1
:1009000087953A95E1F7F701958784871CC0809118
:100910002701813AC1F48091E800877F8093E80045
:100920008091E80080FFFCCFF7018485958596953E
:100930008795969587958093F1008091E8008E7752
:100940008093E800A4D20FB6F894BEBE0FBEADBE31
:100950000F900F900F90DF91CF911F910F91FF900B
:10096000EF90DF90CF90BF90AF909F908F907F904F
:100970006F900895FC01399627E0DF011D922A95BA
:10098000E9F721E0FC01218724EF31E03587248756
:1009900023E0248361E001963DC25F926F927F92D3
:1009A0008F929F92AF92BF92CF92DF92EF92FF927F
:1009B0000F931F93CF93DF9300D01F92CDB7DEB775
:1009C0007C01ADB6BEB680912601843009F08AC0A4
:1009D0008091E4009091E500F70122853385281786
:1009E000390709F47FC081818F708093E90080917D
:1009F000E80085FF77C08DB69EB6408550E08DB784
:100A00009EB7841B950B0FB6F8949EBF0FBE8DBF8B
:100A1000EDB7FEB731966F011B821A82198260E032
:100A200070E0CF01ABD58E010F5F1F4F960140E004
:100A3000BE016D5F7F4FC701F6DC682EF70184852C
:100A40009585892B41F021E086859785892B09F0D2
:100A500020E0722E01C0712CF7010681178101156B
:100A6000110589F049815A81B801C60171D5552413
:100A70005394892B09F4512CF701408550E0B601BD
:100A8000C80173D501C0512C29813A81232BF1F083
:100A9000611004C0511002C070FE18C0F7018485B7
:100AA00095859787868781818F708093E9008B81F8
:100AB00081118093F10069817A8140E050E0C601A4
:100AC00029D08091E8008E778093E8008091E4003F
:100AD0009091E500F701938782870FB6F8949EBE48
:100AE0000FBE8DBE0FB6F894BEBE0FBEADBE0F904A
:100AF0000F900F90DF91CF911F910F91FF90EF908A
:100B0000DF90CF90BF90AF909F908F907F906F902D
:100B10005F900895CF92DF92EF92FF920F931F9311
:100B2000CF93DF937C018B01EA01D2D1811131C0D7
:100B3000209731F088819981081B190BE80EF91E66
:100B4000C12CD12C0115110519F18091E80085FD0A
:100B500014C08091E8008E778093E8005FD42097DE
:100B600041F0888199818C0D9D1D9983888385E052
:100B700010C0AED1882331F30CC0F70181917F0101
:100B80008093F10001501109FFEFCF1ADF0ADACF8D
:100B900080E0DF91CF911F910F91FF90EF90DF9058
:100BA000CF90089520912D0130912E0126173707FF
:100BB00048F06115710539F42091E8002E772093F3
:100BC000E80001C0B901FC0120E061157105B9F12F
:100BD00080912601882309F440C0853009F43FC084
:100BE0008091E80083FD3DC08091E80082FF06C04F
:100BF0008091E80082FF26C080E008958091E8009F
:100C000080FFE3CF2091F3008091F20090E0922BDF
:100C10006115710551F08830910538F421912093C8
:100C2000F100615071090196F3CF21E0089709F0B6
:100C300020E08091E8008E778093E800C6CF2111F4
:100C4000C7CFD6CF80912601882339F0853039F07F
:100C50008091E80083FFCCCF04C082E0089583E058
:100C6000089581E008956115710529F42091E80047
:100C70002B772093E8006115710541F12091260141
:100C8000222369F1253069F12091E80023FD23C07A
:100C90002091E80022FFF2CFFC01CF014091F30048
:100CA0002091F20030E0342B232B01F38091F100EE
:100CB0008193CF01615071096115710571F7D6CF2C
:100CC00080912601882359F0853059F08091E80001
:100CD00080FFF6CF02C081E0089580E0089582E0B1
:100CE000089583E0089520912D0130912E0126175B
:100CF000370748F06115710539F42091E8002E7727
:100D00002093E80001C0B901FC0120E061157105E4
:100D1000C1F180912601882309F441C0853009F48E
:100D200040C08091E80083FD3EC08091E80082FFD2
:100D300006C08091E80082FF27C080E0089580917E
:100D4000E80080FFE3CF2091F3008091F20090E073
:100D5000922B6115710559F08830910540F424916A
:100D60002093F1003196615071090196F2CF21E094
:100D7000089709F020E08091E8008E778093E800E2
:100D8000C5CF2111C6CFD5CF80912601882339F058
:100D9000853039F08091E80083FFCBCF04C082E03A
:100DA000089583E0089581E00895982F973058F5CD
:100DB0009093E900981739F07091EC002091ED00C4
:100DC0005091F00003C0242F762F50E021FF19C06E
:100DD0003091EB003E7F3093EB003091ED003D7F92
:100DE0003093ED003091EB0031603093EB00709365
:100DF000EC002093ED005093F0002091EE0027FFCF
:100E000007C09F5FD3CF8F708093E90081E0089582
:100E100080E008950F931F93CF93DF93062FEC018B
:100E200010E0101771F19881992341F12C81E9812B
:100E3000FA817B81892F8F70873010F080E022C08B
:100E4000223010F056E001C052E028E030E040E0EF
:100E50002E173F0720F44F5F220F331FF9CF429523
:100E6000407F452B692F661F6627661F90E4799F98
:100E700090011124622B99DF882301F31F5F2596CF
:100E8000D0CF81E0DF91CF911F910F910895809194
:100E9000270187FD05C08091E80080FF0EC012C0C9
:100EA0008091E80082FD05C0809126018111F8CF74
:100EB00008958091E8008B7708C080912601811108
:100EC000EACF08958091E8008E778093E800089536
:100ED0008091E4009091E50045E62091EC0020FF30
:100EE00021C02091E80020FD21C02091260122236D
:100EF00089F0253089F02091EB0025FD0FC020916D
:100F0000E4003091E5002817390739F3415041F0EA
:100F1000C901E3CF82E0089583E0089581E0089558
:100F200084E008952091E80022FFDFCF80E008955B
:100F30000F931F93CF93DF934BD052D0C8EDD0E0E7
:100F400088818F77888388818068888388818F7D76
:100F5000888319BC1092260110922201109224015C
:100F60001092230100EE10E0F80180818B7F8083D6
:100F700088818160888342E060E080E016DFE1EEF6
:100F8000F0E080818E7F8083E2EEF0E080818160FE
:100F90008083808188608083F80180818E7F808358
:100FA000888180618883DF91CF911F910F9108958F
:100FB000E8EDF0E080818F7E8083E7EDF0E08081D6
:100FC0008160808384E082BF81E080932501B0CF7F
:100FD000E8EDF0E080818E7F80831092E20008953A
:100FE0001092DA001092E10008951F920F920FB64E
:100FF0000F9211242F933F934F935F936F937F939F
:101000008F939F93AF93BF93EF93FF938091E100F2
:1010100082FF0AC08091E20082FF06C08091E10059
:101020008B7F8093E100F3D98091DA0080FF1DC0AF
:101030008091D80080FF19C08091DA008E7F809364
:10104000DA008091D90080FF0CC080E189BD82E187
:1010500089BD09B400FEFDCF81E080932601C9D986
:1010600004C019BC10922601C5D98091E10080FF0F
:1010700018C08091E20080FF14C08091E2008E7F52
:101080008093E2008091E20080618093E200809191
:10109000D80080628093D80019BC85E08093260137
:1010A000BCD18091E10084FF2FC08091E20084FFD9
:1010B0002BC080E189BD82E189BD09B400FEFDCF6E
:1010C0008091D8008F7D8093D8008091E1008F7E41
:1010D0008093E1008091E2008F7E8093E200809116
:1010E000E20081608093E20080912201882311F068
:1010F00084E007C08091E30087FF02C083E001C065
:1011000081E08093260189D18091E10083FF22C094
:101110008091E20083FF1EC08091E100877F809371
:10112000E10082E080932601109222018091E1008B
:101130008E7F8093E1008091E2008E7F8093E200B9
:101140008091E20080618093E20042E060E080E014
:101150002CDE63D1FF91EF91BF91AF919F918F9161
:101160007F916F915F914F913F912F910F900FBEA3
:101170000F901F9018951F93CF93DF93CDB7DEB7D5
:10118000AA970FB6F894DEBF0FBECDBFE7E2F1E03D
:101190008091F100819321E0EF32F207C9F734D951
:1011A0008091E80083FF21C190912701809128015F
:1011B000853009F477C030F4813081F168F08330F4
:1011C00069F113C1883009F4E2C0893009F4F1C033
:1011D000863009F00AC188C0903881F0923809F051
:1011E00004C180912B018F708093E9008091EB0006
:1011F00085FB882780F91092E90006C080912301C1
:1012000090912401911182609091E800977F9093D2
:10121000E8008093F1001092F100C4C0292F2D7FC7
:1012200009F0E3C0992319F0923061F0DEC090918B
:101230002901913009F0D9C0833009F090E09093F2
:1012400024012AC090912901911126C020912B01DF
:101250002F7009F4CAC02093E9009091EB0090FF31
:101260001BC0833021F48091EB00806213C0809119
:10127000EB0080618093EB0081E090E0022E01C0E2
:10128000880F0A94EAF78093EA001092EA008091AE
:10129000EB0088608093EB001092E9008091E800F9
:1012A000877F83C09111A1C0109129011F77809180
:1012B000E3008078812B8093E3008091E800877FB2
:1012C0008093E800E4DD8091E80080FFFCCF80910E
:1012D000E30080688093E300112311F083E001C0F4
:1012E00082E08093260181C09058923008F07DC042
:1012F0008091290190912A018C3D23E0920771F59C
:1013000083E08A838AE289834FB7F894DE011396DB
:1013100020E03EE051E2E32FF0E050935700E491EB
:1013200020FF03C0E295EF703F5FEF708E2F90E0DB
:10133000EA3010F0C79601C0C0968D939D932F5F41
:10134000243149F74FBF8091E800877F8093E80000
:101350006AE270E0CE01019625DC13C0AE014F5F5A
:101360005F4F60912B010E94EA00009709F43DC095
:101370002091E800277F2093E800BC0189819A81B1
:10138000B2DC8091E8008B778093E8002EC0903823
:1013900061F58091E800877F8093E80080912201C9
:1013A0008093F1008091E8008E778093E8006FDDF4
:1013B0001CC091111AC0909129019230B0F4809113
:1013C000E800877F8093E8009093220160DD8091A0
:1013D0002201811104C08091E30087FF02C084E0F4
:1013E00001C081E08093260106D88091E80083FF48
:1013F0000AC08091E800877F8093E8008091EB002D
:1014000080628093EB00AA960FB6F894DEBF0FBE01
:10141000CDBFDF91CF911F9108950895CF93809113
:1014200026018823A9F08091E9008F709091EC004B
:1014300090FF02C090E801C090E0C92FC82B109225
:10144000E9008091E80083FD96DECF70C093E9004B
:10145000CF910895AA1BBB1B51E107C0AA1FBB1F58
:10146000A617B70710F0A61BB70B881F991F5A9530
:10147000A9F780959095BC01CD01089597FB072EA3
:1014800016F4009406D077FD08D0E4DF07FC05D001
:101490003EF4909581959F4F0895709561957F4F8B
:1014A0000895052E97FB16F400940FD057FD05D034
:1014B0001ED007FC02D046F408C0509540953095E8
:1014C00021953F4F4F4F5F4F0895909580957095B0
:1014D00061957F4F8F4F9F4F08952BD0A59F900D03
:1014E000B49F900DA49F800D911D11240895A1E239
:1014F0001A2EAA1BBB1BFD010DC0AA1FBB1FEE1F8E
:10150000FF1FA217B307E407F50720F0A21BB30BD8
:10151000E40BF50B661F771F881F991F1A9469F754
:1015200060957095809590959B01AC01BD01CF01B0
:101530000895A29FB001B39FC001A39F700D811DAC
:101540001124911DB29F700D811D1124911D0895CC
:10155000FB01DC0104C08D910190801921F4415000
:101560005040C8F7881B990B0895FB01DC0102C0AD
:1015700001900D9241505040D8F70895DC0101C010
:0E1580006D9341505040E0F70895F894FFCF6E
:10158E000081080000011A010800000000000000A0
:00000001FF
